:020000040000FA
:02000000452891
:080008004F28820754346534CF
:1000100063346C3465346534203443344C344134B7
:10002000563445343A34003441344234523449343D
:10003000523400344134423452344934523420343E
:10004000283441342934003443344C344134563458
:1000500045342034283458342934003449344E345B
:1000600043344F34523452344534433454344F348F
:1000700000344E34553445345634413420345034F1
:100080004134533453343A3400341B2183168511E0
:100090008312F320B82088308B0063004D28003095
:1000A0008E02031D80289002031D9E288514E621E0
:1000B0008510C52080002A306221840A8C0A06300F
:1000C0000C02031CC2285D218C011E308400000834
:1000D0008D000C0814220D02031DB428840A8C0A1A
:1000E00006300C02031C67281A30A5214D2124304C
:1000F000A52101308E00F82088308B0063007E2817
:10010000C5208F008514E62185100F08413C031D92
:100110008F285D214B211430A5218511B628F820A8
:100120008E015D214B213930A521013090004D21F8
:100130008C01F32088308B0063009C28C5208D0043
:100140008514E62185102A3062210C0889000D08EB
:100150001D228C0A06300C02031CAF28B828F3209D
:1001600088308B006300B2282E30A52102220422A1
:100170008E01900185158C011E3084005D210630B2
:10018000A5214D21F8200B1009000021031CCA28CD
:10019000CB20031408008207313432343334413425
:1001A00034343534363442343734383439344334E3
:1001B0002A343034233444340021031CE128E22063
:1001C0000314080082070134023403340F3404346A
:1001D000053406340E340734083409340D340A3437
:1001E00000340B340C348316F030860081138312F4
:1001F000F0308600EA210608F03C031DFA280800CA
:100200009101FE308600061E1829910A861E1829C3
:10021000910A061F1829910A861F1829910A0F3082
:100220001102031816290314060D022903101A29B6
:100230001108031408008316051005118510831298
:10024000851005110510EA2130303521EE213030BE
:100250003521D72130303521DF2120303521DF21F4
:100260005F215D215B2149210800F03992000608D9
:100270000F3992048316060894000F308605831206
:1002800012088600051505118316140886008312CE
:1002900008000630602980306029C0306029943021
:1002A0006029D430602980386029C038602908303E
:1002B00060290E3060290C30602901306029283017
:1002C0000510642905146C2193003521130E352186
:1002D000051CF021DC2108009200F13C031D73296C
:1002E000EE30920080291208D13C031D7A29EE30AD
:1002F000920080291208BA3C031D8029DF30920049
:100300001208080010308929013089290230892912
:100310000330950020306221950B8A290800960051
:10032000F039031D97292030622199299600160E75
:100330009A2116080F399500093C031CA2291508BB
:10034000303EA4291508373E6229970005309702F0
:10035000970317080520980098080319B22962210D
:10036000970AA92908009700053097029703990179
:100370005D2110301902031DC229E421E4210F3050
:100380009702B72917080520980098080319CC2967
:100390006221990A970AB9290800000000000000AC
:1003A00000000000000008000000A430E029000068
:1003B0004030E0291F30E02900000E30E0290530F0
:1003C0009A009A0BE1290800C830F3296430F32918
:1003D0003230F3291430F3290A30F3290530F32998
:1003E0000230F32901309B00F9309A0000009A0B8B
:1003F000F6299B0BF4290800C830072A6430072A25
:100400003230072A1430072A0A30072A05309C00A8
:1004100064309B00F9309A0000009A0B0C2A9B0B69
:100420000A2A9C0B082A08008312890083160814E4
:100430000818182A831208080800831288000B087D
:100440009D0083168B13081555308900AA3089004A
:1004500088148818292A0811081283121D088B0095
:02046000080092
:02400E00F13F80
:0C42000030003100320033003400350083
:00000001FF
